{
  "_format": "hh-sol-artifact-1",
  "contractName": "BNBFarming",
  "sourceName": "contracts/NFT.sol",
  "abi": [
    {
      "inputs": [],
      "stateMutability": "nonpayable",
      "type": "constructor"
    },
    {
      "anonymous": false,
      "inputs": [
        {
          "indexed": true,
          "internalType": "address",
          "name": "addr",
          "type": "address"
        },
        {
          "indexed": true,
          "internalType": "address",
          "name": "from",
          "type": "address"
        },
        {
          "indexed": false,
          "internalType": "uint256",
          "name": "amount",
          "type": "uint256"
        }
      ],
      "name": "MatchPayout",
      "type": "event"
    },
    {
      "anonymous": false,
      "inputs": [
        {
          "indexed": true,
          "internalType": "address",
          "name": "addr",
          "type": "address"
        },
        {
          "indexed": false,
          "internalType": "uint256",
          "name": "amount",
          "type": "uint256"
        },
        {
          "indexed": false,
          "internalType": "uint8",
          "name": "tarif",
          "type": "uint8"
        }
      ],
      "name": "NewDeposit",
      "type": "event"
    },
    {
      "anonymous": false,
      "inputs": [
        {
          "indexed": true,
          "internalType": "address",
          "name": "addr",
          "type": "address"
        },
        {
          "indexed": true,
          "internalType": "address",
          "name": "upline",
          "type": "address"
        },
        {
          "indexed": false,
          "internalType": "uint256",
          "name": "bonus",
          "type": "uint256"
        }
      ],
      "name": "Upline",
      "type": "event"
    },
    {
      "anonymous": false,
      "inputs": [
        {
          "indexed": true,
          "internalType": "address",
          "name": "addr",
          "type": "address"
        },
        {
          "indexed": false,
          "internalType": "uint256",
          "name": "amount",
          "type": "uint256"
        },
        {
          "indexed": false,
          "internalType": "uint256",
          "name": "date",
          "type": "uint256"
        },
        {
          "indexed": false,
          "internalType": "uint256",
          "name": "last_payout",
          "type": "uint256"
        }
      ],
      "name": "Withdraw",
      "type": "event"
    },
    {
      "inputs": [],
      "name": "contractInfo",
      "outputs": [
        {
          "internalType": "uint256",
          "name": "_invested",
          "type": "uint256"
        },
        {
          "internalType": "uint256",
          "name": "_withdrawn",
          "type": "uint256"
        },
        {
          "internalType": "uint256",
          "name": "_match_bonus",
          "type": "uint256"
        }
      ],
      "stateMutability": "view",
      "type": "function"
    },
    {
      "inputs": [],
      "name": "currentTime",
      "outputs": [
        {
          "internalType": "uint256",
          "name": "timestamp",
          "type": "uint256"
        }
      ],
      "stateMutability": "view",
      "type": "function"
    },
    {
      "inputs": [],
      "name": "deltaTarifPercent",
      "outputs": [
        {
          "internalType": "uint256",
          "name": "",
          "type": "uint256"
        }
      ],
      "stateMutability": "view",
      "type": "function"
    },
    {
      "inputs": [
        {
          "internalType": "uint8",
          "name": "_tarif",
          "type": "uint8"
        },
        {
          "internalType": "address",
          "name": "_upline",
          "type": "address"
        }
      ],
      "name": "deposit",
      "outputs": [],
      "stateMutability": "payable",
      "type": "function"
    },
    {
      "inputs": [],
      "name": "endTarifDay",
      "outputs": [
        {
          "internalType": "uint8",
          "name": "",
          "type": "uint8"
        }
      ],
      "stateMutability": "view",
      "type": "function"
    },
    {
      "inputs": [],
      "name": "invest",
      "outputs": [],
      "stateMutability": "payable",
      "type": "function"
    },
    {
      "inputs": [],
      "name": "invested",
      "outputs": [
        {
          "internalType": "uint256",
          "name": "",
          "type": "uint256"
        }
      ],
      "stateMutability": "view",
      "type": "function"
    },
    {
      "inputs": [],
      "name": "match_bonus",
      "outputs": [
        {
          "internalType": "uint256",
          "name": "",
          "type": "uint256"
        }
      ],
      "stateMutability": "view",
      "type": "function"
    },
    {
      "inputs": [],
      "name": "minimumDepositAmount",
      "outputs": [
        {
          "internalType": "uint256",
          "name": "",
          "type": "uint256"
        }
      ],
      "stateMutability": "view",
      "type": "function"
    },
    {
      "inputs": [],
      "name": "owner",
      "outputs": [
        {
          "internalType": "address",
          "name": "",
          "type": "address"
        }
      ],
      "stateMutability": "view",
      "type": "function"
    },
    {
      "inputs": [
        {
          "internalType": "address",
          "name": "_addr",
          "type": "address"
        }
      ],
      "name": "payoutOf",
      "outputs": [
        {
          "internalType": "uint256",
          "name": "value",
          "type": "uint256"
        }
      ],
      "stateMutability": "view",
      "type": "function"
    },
    {
      "inputs": [
        {
          "internalType": "address",
          "name": "",
          "type": "address"
        }
      ],
      "name": "players",
      "outputs": [
        {
          "internalType": "address",
          "name": "upline",
          "type": "address"
        },
        {
          "internalType": "uint256",
          "name": "dividends",
          "type": "uint256"
        },
        {
          "internalType": "uint256",
          "name": "match_bonus",
          "type": "uint256"
        },
        {
          "internalType": "uint40",
          "name": "last_payout",
          "type": "uint40"
        },
        {
          "internalType": "uint256",
          "name": "total_invested",
          "type": "uint256"
        },
        {
          "internalType": "uint256",
          "name": "total_withdrawn",
          "type": "uint256"
        },
        {
          "internalType": "uint256",
          "name": "total_match_bonus",
          "type": "uint256"
        }
      ],
      "stateMutability": "view",
      "type": "function"
    },
    {
      "inputs": [
        {
          "internalType": "uint256",
          "name": "",
          "type": "uint256"
        }
      ],
      "name": "ref_bonuses",
      "outputs": [
        {
          "internalType": "uint8",
          "name": "",
          "type": "uint8"
        }
      ],
      "stateMutability": "view",
      "type": "function"
    },
    {
      "inputs": [],
      "name": "setTradeOn",
      "outputs": [],
      "stateMutability": "nonpayable",
      "type": "function"
    },
    {
      "inputs": [],
      "name": "startTarifDay",
      "outputs": [
        {
          "internalType": "uint8",
          "name": "",
          "type": "uint8"
        }
      ],
      "stateMutability": "view",
      "type": "function"
    },
    {
      "inputs": [],
      "name": "startTarifPercent",
      "outputs": [
        {
          "internalType": "uint256",
          "name": "",
          "type": "uint256"
        }
      ],
      "stateMutability": "view",
      "type": "function"
    },
    {
      "inputs": [
        {
          "internalType": "uint8",
          "name": "",
          "type": "uint8"
        }
      ],
      "name": "tarifs",
      "outputs": [
        {
          "internalType": "uint8",
          "name": "life_days",
          "type": "uint8"
        },
        {
          "internalType": "uint256",
          "name": "percent",
          "type": "uint256"
        }
      ],
      "stateMutability": "view",
      "type": "function"
    },
    {
      "inputs": [],
      "name": "tradeOn",
      "outputs": [
        {
          "internalType": "bool",
          "name": "",
          "type": "bool"
        }
      ],
      "stateMutability": "view",
      "type": "function"
    },
    {
      "inputs": [
        {
          "internalType": "address",
          "name": "_addr",
          "type": "address"
        }
      ],
      "name": "userInfo",
      "outputs": [
        {
          "internalType": "uint256",
          "name": "for_withdraw",
          "type": "uint256"
        },
        {
          "internalType": "uint256",
          "name": "total_invested",
          "type": "uint256"
        },
        {
          "internalType": "uint256",
          "name": "total_withdrawn",
          "type": "uint256"
        },
        {
          "internalType": "uint256",
          "name": "total_match_bonus",
          "type": "uint256"
        },
        {
          "internalType": "uint256",
          "name": "last_payout",
          "type": "uint256"
        },
        {
          "internalType": "uint256",
          "name": "player_match_bonus",
          "type": "uint256"
        },
        {
          "components": [
            {
              "internalType": "uint8",
              "name": "tarif",
              "type": "uint8"
            },
            {
              "internalType": "uint256",
              "name": "amount",
              "type": "uint256"
            },
            {
              "internalType": "uint40",
              "name": "time",
              "type": "uint40"
            }
          ],
          "internalType": "struct Deposit[]",
          "name": "deposits",
          "type": "tuple[]"
        },
        {
          "internalType": "uint256[3]",
          "name": "structure",
          "type": "uint256[3]"
        }
      ],
      "stateMutability": "view",
      "type": "function"
    },
    {
      "inputs": [],
      "name": "withdraw",
      "outputs": [],
      "stateMutability": "nonpayable",
      "type": "function"
    },
    {
      "inputs": [],
      "name": "withdrawn",
      "outputs": [
        {
          "internalType": "uint256",
          "name": "",
          "type": "uint256"
        }
      ],
      "stateMutability": "view",
      "type": "function"
    }
  ],
  "bytecode": "0x60806040526040518060600160405280603260ff168152602001601e60ff168152602001601460ff1681525060059060036200003d929190620008cc565b506082600655600a600760006101000a81548160ff021916908360ff160217905550601e600760016101000a81548160ff021916908360ff1602179055506009600855662386f26fc100006009553480156200009857600080fd5b50336000806101000a81548173ffffffffffffffffffffffffffffffffffffffff021916908373ffffffffffffffffffffffffffffffffffffffff1602179055506001600460006101000a81548160ff0219169083151502179055506040518060400160405280600a60ff1681526020016082815250600a6000600a60ff16815260200190815260200160002060008201518160000160006101000a81548160ff021916908360ff160217905550602082015181600101559050506040518060400160405280600b60ff168152602001608d815250600a6000600b60ff16815260200190815260200160002060008201518160000160006101000a81548160ff021916908360ff160217905550602082015181600101559050506040518060400160405280600c60ff1681526020016098815250600a6000600c60ff16815260200190815260200160002060008201518160000160006101000a81548160ff021916908360ff160217905550602082015181600101559050506040518060400160405280600d60ff16815260200160a3815250600a6000600d60ff16815260200190815260200160002060008201518160000160006101000a81548160ff021916908360ff160217905550602082015181600101559050506040518060400160405280600e60ff16815260200160ad815250600a6000600e60ff16815260200190815260200160002060008201518160000160006101000a81548160ff021916908360ff160217905550602082015181600101559050506040518060400160405280600f60ff16815260200160b7815250600a6000600f60ff16815260200190815260200160002060008201518160000160006101000a81548160ff021916908360ff160217905550602082015181600101559050506040518060400160405280601060ff16815260200160c1815250600a6000601060ff16815260200190815260200160002060008201518160000160006101000a81548160ff021916908360ff160217905550602082015181600101559050506040518060400160405280601160ff16815260200160cb815250600a6000601160ff16815260200190815260200160002060008201518160000160006101000a81548160ff021916908360ff160217905550602082015181600101559050506040518060400160405280601260ff16815260200160d4815250600a6000601260ff16815260200190815260200160002060008201518160000160006101000a81548160ff021916908360ff160217905550602082015181600101559050506040518060400160405280601360ff16815260200160dd815250600a6000601360ff16815260200190815260200160002060008201518160000160006101000a81548160ff021916908360ff160217905550602082015181600101559050506040518060400160405280601460ff16815260200160e6815250600a6000601460ff16815260200190815260200160002060008201518160000160006101000a81548160ff021916908360ff160217905550602082015181600101559050506040518060400160405280601560ff16815260200160ee815250600a6000601560ff16815260200190815260200160002060008201518160000160006101000a81548160ff021916908360ff160217905550602082015181600101559050506040518060400160405280601660ff16815260200160f6815250600a6000601660ff16815260200190815260200160002060008201518160000160006101000a81548160ff021916908360ff160217905550602082015181600101559050506040518060400160405280601760ff16815260200160fe815250600a6000601760ff16815260200190815260200160002060008201518160000160006101000a81548160ff021916908360ff160217905550602082015181600101559050506040518060400160405280601860ff168152602001610105815250600a6000601860ff16815260200190815260200160002060008201518160000160006101000a81548160ff021916908360ff160217905550602082015181600101559050506040518060400160405280601960ff16815260200161010c815250600a6000601960ff16815260200190815260200160002060008201518160000160006101000a81548160ff021916908360ff160217905550602082015181600101559050506040518060400160405280601a60ff168152602001610113815250600a6000601a60ff16815260200190815260200160002060008201518160000160006101000a81548160ff021916908360ff160217905550602082015181600101559050506040518060400160405280601b60ff16815260200161011a815250600a6000601b60ff16815260200190815260200160002060008201518160000160006101000a81548160ff021916908360ff160217905550602082015181600101559050506040518060400160405280601c60ff168152602001610120815250600a6000601c60ff16815260200190815260200160002060008201518160000160006101000a81548160ff021916908360ff160217905550602082015181600101559050506040518060400160405280601d60ff168152602001610126815250600a6000601d60ff16815260200190815260200160002060008201518160000160006101000a81548160ff021916908360ff160217905550602082015181600101559050506040518060400160405280601e60ff16815260200161012c815250600a6000601e60ff16815260200190815260200160002060008201518160000160006101000a81548160ff021916908360ff160217905550602082015181600101559050506200098c565b826003601f016020900481019282156200095a5791602002820160005b838211156200092957835183826101000a81548160ff021916908360ff1602179055509260200192600101602081600001049283019260010302620008e9565b8015620009585782816101000a81549060ff021916905560010160208160000104928301926001030262000929565b505b5090506200096991906200096d565b5090565b5b80821115620009885760008160009055506001016200096e565b5090565b6126a5806200099c6000396000f3fe60806040526004361061012a5760003560e01c8063a7401709116100ab578063c80ec5221161006f578063c80ec522146103e3578063cafb22021461040e578063d18e81b314610439578063d81f002814610464578063e2eb41ff1461047b578063e8b5e51f146104be5761012a565b8063a7401709146102f6578063ab94d95014610334578063b39884a414610350578063b7d9f0d21461037b578063c8084dd1146103b85761012a565b806326429171116100f257806326429171146102215780633ccfd60b1461024c5780635cbd4553146102635780636da61d1e1461028e5780638da5cb5b146102cb5761012a565b8063080c279a1461012f57806315c43aaf1461015a5780631959a002146101875780631db184bc146101cb57806322bca2e1146101f6575b600080fd5b34801561013b57600080fd5b506101446104c8565b6040516101519190611f66565b60405180910390f35b34801561016657600080fd5b5061016f6104ce565b60405161017e93929190611f81565b60405180910390f35b34801561019357600080fd5b506101ae60048036038101906101a99190611a5e565b6104e7565b6040516101c2989796959493929190611fb8565b60405180910390f35b3480156101d757600080fd5b506101e0610791565b6040516101ed9190611f66565b60405180910390f35b34801561020257600080fd5b5061020b610797565b604051610218919061209d565b60405180910390f35b34801561022d57600080fd5b506102366107aa565b604051610243919061209d565b60405180910390f35b34801561025857600080fd5b506102616107bd565b005b34801561026f57600080fd5b50610278610abf565b6040516102859190611e6b565b60405180910390f35b34801561029a57600080fd5b506102b560048036038101906102b09190611a5e565b610ad2565b6040516102c29190611f66565b60405180910390f35b3480156102d757600080fd5b506102e0610d27565b6040516102ed9190611de1565b60405180910390f35b34801561030257600080fd5b5061031d60048036038101906103189190611ad9565b610d4b565b60405161032b9291906120b8565b60405180910390f35b61034e60048036038101906103499190611b02565b610d7c565b005b34801561035c57600080fd5b50610365611059565b6040516103729190611f66565b60405180910390f35b34801561038757600080fd5b506103a2600480360381019061039d9190611a87565b61105f565b6040516103af919061209d565b60405180910390f35b3480156103c457600080fd5b506103cd611089565b6040516103da9190611f66565b60405180910390f35b3480156103ef57600080fd5b506103f861108f565b6040516104059190611f66565b60405180910390f35b34801561041a57600080fd5b50610423611095565b6040516104309190611f66565b60405180910390f35b34801561044557600080fd5b5061044e61109b565b60405161045b9190611f66565b60405180910390f35b34801561047057600080fd5b506104796110a3565b005b34801561048757600080fd5b506104a2600480360381019061049d9190611a5e565b61114e565b6040516104b59796959493929190611dfc565b60405180910390f35b6104c66111c1565b005b60095481565b6000806000600154600254600354925092509250909192565b60008060008060008060606104fa6119e8565b6000600b60008b73ffffffffffffffffffffffffffffffffffffffff1673ffffffffffffffffffffffffffffffffffffffff168152602001908152602001600020905060003073ffffffffffffffffffffffffffffffffffffffff16636da61d1e8c6040518263ffffffff1660e01b81526004016105789190611de1565b60206040518083038186803b15801561059057600080fd5b505afa1580156105a4573d6000803e3d6000fd5b505050506040513d601f19601f820116820180604052508101906105c89190611ab0565b905060005b60038160ff16101561067257826008018160ff1660038110610618577f4e487b7100000000000000000000000000000000000000000000000000000000600052603260045260246000fd5b0154848260ff1660038110610656577f4e487b7100000000000000000000000000000000000000000000000000000000600052603260045260246000fd5b602002018181525050808061066a90612437565b9150506105cd565b5081600201548260010154826106889190612158565b6106929190612158565b8260040154836005015484600601548560030160009054906101000a900464ffffffffff16866002015487600701898364ffffffffff16935081805480602002602001604051908101604052809291908181526020016000905b8282101561076e57838290600052602060002090600302016040518060600160405290816000820160009054906101000a900460ff1660ff1660ff168152602001600182015481526020016002820160009054906101000a900464ffffffffff1664ffffffffff1664ffffffffff1681525050815260200190600101906106ec565b505050509150995099509950995099509950995099505050919395975091939597565b60065481565b600760009054906101000a900460ff1681565b600760019054906101000a900460ff1681565b60011515600460009054906101000a900460ff16151514610813576040517f08c379a000000000000000000000000000000000000000000000000000000000815260040161080a90611e86565b60405180910390fd5b6000600b60003373ffffffffffffffffffffffffffffffffffffffff1673ffffffffffffffffffffffffffffffffffffffff1681526020019081526020016000209050620151808160030160009054906101000a900464ffffffffff1664ffffffffff164261088291906122ef565b10156108c3576040517f08c379a00000000000000000000000000000000000000000000000000000000081526004016108ba90611ee6565b60405180910390fd5b6108cc3361120a565b6000816001015411806108e3575060008160020154115b610922576040517f08c379a000000000000000000000000000000000000000000000000000000000815260040161091990611ec6565b60405180910390fd5b6000816002015482600101546109389190612158565b90506000826001018190555060008260020181905550808260050160008282546109629190612158565b92505081905550806002600082825461097b9190612158565b925050819055503373ffffffffffffffffffffffffffffffffffffffff166108fc600a6009846109ab9190612257565b6109b591906121e9565b9081150290604051600060405180830381858888f193505050501580156109e0573d6000803e3d6000fd5b5060008054906101000a900473ffffffffffffffffffffffffffffffffffffffff1673ffffffffffffffffffffffffffffffffffffffff166108fc600a83610a2891906121e9565b9081150290604051600060405180830381858888f19350505050158015610a53573d6000803e3d6000fd5b503373ffffffffffffffffffffffffffffffffffffffff167f02f25270a4d87bea75db541cdfe559334a275b4a233520ed6c0a2429667cca9482428560030160009054906101000a900464ffffffffff16604051610ab39392919061203d565b60405180910390a25050565b600460009054906101000a900460ff1681565b600080600b60008473ffffffffffffffffffffffffffffffffffffffff1673ffffffffffffffffffffffffffffffffffffffff168152602001908152602001600020905060005b8160070180549050811015610d20576000826007018281548110610b66577f4e487b7100000000000000000000000000000000000000000000000000000000600052603260045260246000fd5b906000526020600020906003020190506000600a60008360000160009054906101000a900460ff1660ff1660ff16815260200190815260200160002090506000620151808260000160009054906101000a900460ff1660ff16610bc9919061221a565b62ffffff168360020160009054906101000a900464ffffffffff16610bee91906121ae565b905060008360020160009054906101000a900464ffffffffff1664ffffffffff168660030160009054906101000a900464ffffffffff1664ffffffffff1611610c4c578360020160009054906101000a900464ffffffffff16610c63565b8560030160009054906101000a900464ffffffffff165b905060008264ffffffffff164211610c7b5742610c7d565b825b90508064ffffffffff168264ffffffffff161015610d08576305265c008460000160009054906101000a900460ff1660ff16610cb991906122b1565b63ffffffff1684600101548383610cd09190612323565b64ffffffffff168760010154610ce69190612257565b610cf09190612257565b610cfa91906121e9565b88610d059190612158565b97505b50505050508080610d18906123ee565b915050610b19565b5050919050565b60008054906101000a900473ffffffffffffffffffffffffffffffffffffffff1681565b600a6020528060005260406000206000915090508060000160009054906101000a900460ff16908060010154905082565b60011515600460009054906101000a900460ff16151514610dd2576040517f08c379a0000000000000000000000000000000000000000000000000000000008152600401610dc990611e86565b60405180910390fd5b6000600a60008460ff1660ff16815260200190815260200160002060000160009054906101000a900460ff1660ff1611610e41576040517f08c379a0000000000000000000000000000000000000000000000000000000008152600401610e3890611f26565b60405180910390fd5b600954341015610e86576040517f08c379a0000000000000000000000000000000000000000000000000000000008152600401610e7d90611f46565b60405180910390fd5b6000600b60003373ffffffffffffffffffffffffffffffffffffffff1673ffffffffffffffffffffffffffffffffffffffff16815260200190815260200160002090506064816007018054905010610f13576040517f08c379a0000000000000000000000000000000000000000000000000000000008152600401610f0a90611ea6565b60405180910390fd5b610f1e338334611361565b8060070160405180606001604052808560ff1681526020013481526020014264ffffffffff16815250908060018154018082558091505060019003906000526020600020906003020160009091909190915060008201518160000160006101000a81548160ff021916908360ff1602179055506020820151816001015560408201518160020160006101000a81548164ffffffffff021916908364ffffffffff160217905550505034816004016000828254610fda9190612158565b925050819055503460016000828254610ff39190612158565b925050819055506110043334611713565b3373ffffffffffffffffffffffffffffffffffffffff167f0d86f10953d9873a5957019d43d6ec46ac821d7ef9c936a0e65340552e78b79b348560405161104c929190612074565b60405180910390a2505050565b60085481565b6005816003811061106f57600080fd5b60209182820401919006915054906101000a900460ff1681565b60035481565b60025481565b60015481565b600042905090565b60008054906101000a900473ffffffffffffffffffffffffffffffffffffffff1673ffffffffffffffffffffffffffffffffffffffff163373ffffffffffffffffffffffffffffffffffffffff1614611131576040517f08c379a000000000000000000000000000000000000000000000000000000000815260040161112890611f06565b60405180910390fd5b6001600460006101000a81548160ff021916908315150217905550565b600b6020528060005260406000206000915090508060000160009054906101000a900473ffffffffffffffffffffffffffffffffffffffff16908060010154908060020154908060030160009054906101000a900464ffffffffff16908060040154908060050154908060060154905087565b3373ffffffffffffffffffffffffffffffffffffffff166108fc479081150290604051600060405180830381858888f19350505050158015611207573d6000803e3d6000fd5b50565b60003073ffffffffffffffffffffffffffffffffffffffff16636da61d1e836040518263ffffffff1660e01b81526004016112459190611de1565b60206040518083038186803b15801561125d57600080fd5b505afa158015611271573d6000803e3d6000fd5b505050506040513d601f19601f820116820180604052508101906112959190611ab0565b9050600081111561135d5742600b60008473ffffffffffffffffffffffffffffffffffffffff1673ffffffffffffffffffffffffffffffffffffffff16815260200190815260200160002060030160006101000a81548164ffffffffff021916908364ffffffffff16021790555080600b60008473ffffffffffffffffffffffffffffffffffffffff1673ffffffffffffffffffffffffffffffffffffffff16815260200190815260200160002060010160008282546113559190612158565b925050819055505b5050565b600073ffffffffffffffffffffffffffffffffffffffff16600b60008573ffffffffffffffffffffffffffffffffffffffff1673ffffffffffffffffffffffffffffffffffffffff16815260200190815260200160002060000160009054906101000a900473ffffffffffffffffffffffffffffffffffffffff1673ffffffffffffffffffffffffffffffffffffffff1614801561144b575060008054906101000a900473ffffffffffffffffffffffffffffffffffffffff1673ffffffffffffffffffffffffffffffffffffffff168373ffffffffffffffffffffffffffffffffffffffff1614155b1561170e576000600b60008473ffffffffffffffffffffffffffffffffffffffff1673ffffffffffffffffffffffffffffffffffffffff1681526020019081526020016000206007018054905014156114c25760008054906101000a900473ffffffffffffffffffffffffffffffffffffffff1691505b81600b60008573ffffffffffffffffffffffffffffffffffffffff1673ffffffffffffffffffffffffffffffffffffffff16815260200190815260200160002060000160006101000a81548173ffffffffffffffffffffffffffffffffffffffff021916908373ffffffffffffffffffffffffffffffffffffffff1602179055508173ffffffffffffffffffffffffffffffffffffffff168373ffffffffffffffffffffffffffffffffffffffff167fe6aa6b28bd475dad275b706ff13fb0c7c634a95842cca4f7a8795f7ddbbc492f60648461159f91906121e9565b6040516115ac9190611f66565b60405180910390a360005b600360ff168160ff16101561170c57600b60008473ffffffffffffffffffffffffffffffffffffffff1673ffffffffffffffffffffffffffffffffffffffff1681526020019081526020016000206008018160ff1660038110611643577f4e487b7100000000000000000000000000000000000000000000000000000000600052603260045260246000fd5b016000815480929190611655906123ee565b9190505550600b60008473ffffffffffffffffffffffffffffffffffffffff1673ffffffffffffffffffffffffffffffffffffffff16815260200190815260200160002060000160009054906101000a900473ffffffffffffffffffffffffffffffffffffffff169250600073ffffffffffffffffffffffffffffffffffffffff168373ffffffffffffffffffffffffffffffffffffffff1614156116f95761170c565b808061170490612437565b9150506115b7565b505b505050565b6000600b60008473ffffffffffffffffffffffffffffffffffffffff1673ffffffffffffffffffffffffffffffffffffffff16815260200190815260200160002060000160009054906101000a900473ffffffffffffffffffffffffffffffffffffffff16905060005b60038160ff1610156119e257600073ffffffffffffffffffffffffffffffffffffffff168273ffffffffffffffffffffffffffffffffffffffff1614156117c3576119e2565b60006103e861ffff1660058360ff1660038110611809577f4e487b7100000000000000000000000000000000000000000000000000000000600052603260045260246000fd5b602091828204019190069054906101000a900460ff1660ff168561182d9190612257565b61183791906121e9565b905080600b60008573ffffffffffffffffffffffffffffffffffffffff1673ffffffffffffffffffffffffffffffffffffffff168152602001908152602001600020600201600082825461188b9190612158565b9250508190555080600b60008573ffffffffffffffffffffffffffffffffffffffff1673ffffffffffffffffffffffffffffffffffffffff16815260200190815260200160002060060160008282546118e49190612158565b9250508190555080600360008282546118fd9190612158565b925050819055508473ffffffffffffffffffffffffffffffffffffffff168373ffffffffffffffffffffffffffffffffffffffff167f16e746f9be6c4b545700b04df27afb9fceabf59b94ef1c816e78a435059fabea836040516119619190611f66565b60405180910390a3600b60008473ffffffffffffffffffffffffffffffffffffffff1673ffffffffffffffffffffffffffffffffffffffff16815260200190815260200160002060000160009054906101000a900473ffffffffffffffffffffffffffffffffffffffff1692505080806119da90612437565b91505061177d565b50505050565b6040518060600160405280600390602082028036833780820191505090505090565b600081359050611a198161262a565b92915050565b600081359050611a2e81612641565b92915050565b600081519050611a4381612641565b92915050565b600081359050611a5881612658565b92915050565b600060208284031215611a7057600080fd5b6000611a7e84828501611a0a565b91505092915050565b600060208284031215611a9957600080fd5b6000611aa784828501611a1f565b91505092915050565b600060208284031215611ac257600080fd5b6000611ad084828501611a34565b91505092915050565b600060208284031215611aeb57600080fd5b6000611af984828501611a49565b91505092915050565b60008060408385031215611b1557600080fd5b6000611b2385828601611a49565b9250506020611b3485828601611a0a565b9150509250929050565b6000611b4a8383611d36565b60608301905092915050565b6000611b628383611d78565b60208301905092915050565b611b7781612357565b82525050565b6000611b88826120fb565b611b92818561212b565b9350611b9d836120e1565b8060005b83811015611bce578151611bb58882611b3e565b9750611bc083612111565b925050600181019050611ba1565b5085935050505092915050565b611be481612106565b611bee818461213c565b9250611bf9826120f1565b8060005b83811015611c2a578151611c118782611b56565b9650611c1c8361211e565b925050600181019050611bfd565b505050505050565b611c3b81612369565b82525050565b6000611c4e601783612147565b9150611c59826124bf565b602082019050919050565b6000611c71601c83612147565b9150611c7c826124e8565b602082019050919050565b6000611c94600b83612147565b9150611c9f82612511565b602082019050919050565b6000611cb7602e83612147565b9150611cc28261253a565b604082019050919050565b6000611cda601183612147565b9150611ce582612589565b602082019050919050565b6000611cfd600f83612147565b9150611d08826125b2565b602082019050919050565b6000611d20603283612147565b9150611d2b826125db565b604082019050919050565b606082016000820151611d4c6000850182611dc3565b506020820151611d5f6020850182611d78565b506040820151611d726040850182611da5565b50505050565b611d81816123a4565b82525050565b611d90816123a4565b82525050565b611d9f816123dc565b82525050565b611dae816123be565b82525050565b611dbd816123be565b82525050565b611dcc816123cf565b82525050565b611ddb816123cf565b82525050565b6000602082019050611df66000830184611b6e565b92915050565b600060e082019050611e11600083018a611b6e565b611e1e6020830189611d87565b611e2b6040830188611d87565b611e386060830187611db4565b611e456080830186611d87565b611e5260a0830185611d87565b611e5f60c0830184611d87565b98975050505050505050565b6000602082019050611e806000830184611c32565b92915050565b60006020820190508181036000830152611e9f81611c41565b9050919050565b60006020820190508181036000830152611ebf81611c64565b9050919050565b60006020820190508181036000830152611edf81611c87565b9050919050565b60006020820190508181036000830152611eff81611caa565b9050919050565b60006020820190508181036000830152611f1f81611ccd565b9050919050565b60006020820190508181036000830152611f3f81611cf0565b9050919050565b60006020820190508181036000830152611f5f81611d13565b9050919050565b6000602082019050611f7b6000830184611d87565b92915050565b6000606082019050611f966000830186611d87565b611fa36020830185611d87565b611fb06040830184611d87565b949350505050565b600061014082019050611fce600083018b611d87565b611fdb602083018a611d87565b611fe86040830189611d87565b611ff56060830188611d87565b6120026080830187611d87565b61200f60a0830186611d87565b81810360c08301526120218185611b7d565b905061203060e0830184611bdb565b9998505050505050505050565b60006060820190506120526000830186611d87565b61205f6020830185611d87565b61206c6040830184611d96565b949350505050565b60006040820190506120896000830185611d87565b6120966020830184611dd2565b9392505050565b60006020820190506120b26000830184611dd2565b92915050565b60006040820190506120cd6000830185611dd2565b6120da6020830184611d87565b9392505050565b6000819050602082019050919050565b6000819050919050565b600081519050919050565b600060039050919050565b6000602082019050919050565b6000602082019050919050565b600082825260208201905092915050565b600081905092915050565b600082825260208201905092915050565b6000612163826123a4565b915061216e836123a4565b9250827fffffffffffffffffffffffffffffffffffffffffffffffffffffffffffffffff038211156121a3576121a2612461565b5b828201905092915050565b60006121b9826123be565b91506121c4836123be565b92508264ffffffffff038211156121de576121dd612461565b5b828201905092915050565b60006121f4826123a4565b91506121ff836123a4565b92508261220f5761220e612490565b5b828204905092915050565b600061222582612395565b915061223083612395565b92508162ffffff048311821515161561224c5761224b612461565b5b828202905092915050565b6000612262826123a4565b915061226d836123a4565b9250817fffffffffffffffffffffffffffffffffffffffffffffffffffffffffffffffff04831182151516156122a6576122a5612461565b5b828202905092915050565b60006122bc826123ae565b91506122c7836123ae565b92508163ffffffff04831182151516156122e4576122e3612461565b5b828202905092915050565b60006122fa826123a4565b9150612305836123a4565b92508282101561231857612317612461565b5b828203905092915050565b600061232e826123be565b9150612339836123be565b92508282101561234c5761234b612461565b5b828203905092915050565b600061236282612375565b9050919050565b60008115159050919050565b600073ffffffffffffffffffffffffffffffffffffffff82169050919050565b600062ffffff82169050919050565b6000819050919050565b600063ffffffff82169050919050565b600064ffffffffff82169050919050565b600060ff82169050919050565b60006123e7826123be565b9050919050565b60006123f9826123a4565b91507fffffffffffffffffffffffffffffffffffffffffffffffffffffffffffffffff82141561242c5761242b612461565b5b600182019050919050565b6000612442826123cf565b915060ff82141561245657612455612461565b5b600182019050919050565b7f4e487b7100000000000000000000000000000000000000000000000000000000600052601160045260246000fd5b7f4e487b7100000000000000000000000000000000000000000000000000000000600052601260045260246000fd5b7f50726f6a656374206973206e6f74206c61756e63686564000000000000000000600082015250565b7f4d617820313030206465706f7369747320706572206164647265737300000000600082015250565b7f5a65726f20616d6f756e74000000000000000000000000000000000000000000600082015250565b7f596f752063616e2774207769746864726177206d6f7265207468656e2031207460008201527f696d657320696e2061206461792e000000000000000000000000000000000000602082015250565b7f596f75206d757374206265206f776e6572000000000000000000000000000000600082015250565b7f5461726966206e6f7420666f756e640000000000000000000000000000000000600082015250565b7f596f752063616e2774206465706f736974206c657373207468616e204d696e6960008201527f6d756d206465706f73697420616d6f756e740000000000000000000000000000602082015250565b61263381612357565b811461263e57600080fd5b50565b61264a816123a4565b811461265557600080fd5b50565b612661816123cf565b811461266c57600080fd5b5056fea2646970667358221220f5782e8d6952fafd4df5cba2a68b4b98703ae163dd460e489b4d12b9e0479e6564736f6c63430008040033",
  "linkReferences": {},
  "deployedLinkReferences": {}
}